:100000000C9444000C9461000C9461000C94610009
:100010000C9461000C9461000C9461000C94DF015D
:100020000C9461000C9461000C9461000C946100CC
:100030000C9461000C9461000C947F010C9461009D
:100040000C9461000C9461000C942C020C945B02E3
:100050000C9461000C9471000C9461000C9461008C
:100060000C9461000C94610096009A009E00A2001E
:10007000A600AA00AE00B20056015B016001650156
:100080006A016F017401790111241FBECFEFD8E01E
:10009000DEBFCDBF11E0A0E0B1E0E8EFF4E002C0C8
:1000A00005900D92A831B107D9F721E0A8E1B1E0A0
:1000B00001C01D92AF31B207E1F70E942B010C94F1
:1000C0007A020C94000017B88FEA80937A00EBE76D
:1000D000F0E080818360808383E680937C00789465
:1000E00008951F920F920FB60F9211248F939F9332
:1000F0008091790090E090931901809318019F916D
:100100008F910F900FBE0F901F9018958093000154
:100110000895E09100018E2F90E0FC01F197E83006
:10012000F10520F5EC5CFF4F0C94740281E08093A4
:100130001A01089582E080931A01089583E0809364
:100140001A01089584E080931A01089585E0809350
:100150001A01089586E080931A01089587E080933C
:100160001A01089588E080931A01089510921A01E7
:10017000089580950E94D0018FEF0E94D6018FEFE5
:100180000E94DC010895CF93C82F8FEF0E94D00109
:100190008C2F80950E94D6018FEF0E94DC01CF91B9
:1001A0000895CF93C82F8FEF0E94D0018FEF0E9448
:1001B000D6018C2F80950E94DC01CF910895CF93BA
:1001C000C82F8FEF0E94D001C0958C2F0E94D601BE
:1001D0008C2F0E94DC01CF910895CF93C82FC0953A
:1001E0008C2F0E94D0018C2F0E94D6018FEF0E948D
:1001F000DC01CF910895CF93C82FC0958C2F0E941A
:10020000D0018FEF0E94D6018C2F0E94DC01CF918C
:100210000895CF93C82FC0958C2F0E94D0018C2FAA
:100220000E94D6018C2F0E94DC01CF9108958FEFA0
:100230000E94D0018FEF0E94D6018FEF0E94DC0157
:1002400008958FEF0E94D0018FEF0E94D6018FEFAB
:100250000E94DC01089584B5826084BD85B5856007
:1002600085BD8CE987BDEEE6F0E080818260808309
:100270000E9463000E94FF010E94A3010E94BA0134
:10028000789482E091E00E941F028091180180938F
:100290001B01E0911A018E2F90E0FC013197E830AC
:1002A000F10550F5E45CFF4F0C94740280911B0142
:1002B0000E94B900EACF80911B010E94C300E5CFE4
:1002C00080911B010E94D100E0CF80911B010E9410
:1002D000DF00DBCF80911B010E94ED00D6CF809123
:1002E0001B010E94FB00D1CF80911B010E940901DC
:1002F000CCCF0E941701C9CF0E942101C6CF1F9207
:100300000F920FB60F9211242F933F934F935F9349
:100310006F937F938F939F93AF93BF93EF93FF93CD
:100320000E948900FF91EF91BF91AF919F918F91B2
:100330007F916F915F914F913F912F910F900FBEE1
:100340000F901F90189584B1866084B9E0E8F0E0C2
:1003500080818068808380818062808380818160E9
:100360008083E1E8F0E08081886080838081846020
:100370008083089584B1806284B9E0EBF0E08081ED
:1003800082608083E1EBF0E0808182608083E0E73F
:10039000F0E08081826080838FE18093B3000895D4
:1003A00090E09093890080938800089590E0909366
:1003B0008B0080938A0008958093010108951F9215
:1003C0000F920FB60F9211248F939F9380911C016F
:1003D0008F5F80931C0190911C01809101019817FF
:1003E00020F485B1806285B903C085B18F7D85B960
:1003F0009F918F910F900FBE0F901F901895E1EC79
:10040000F0E0808188618083A2ECB0E08C9186600E
:100410008C9387E68093C4008AB182608AB98AB1DE
:100420008E7F8AB9808180688083789408958093D4
:100430001D01E1ECF0E08081806280830895CF931C
:10044000DF93EC0103C021960E941702888181117D
:10045000FACFDF91CF9108951F920F920FB60F92AE
:1004600011242F933F934F935F936F937F938F93B9
:100470009F93AF93BF93EF93FF938091C6008093B8
:100480001E0180911E010E94170280911E0190E0C2
:100490000E948600FF91EF91BF91AF919F918F9144
:1004A0007F916F915F914F913F912F910F900FBE70
:1004B0000F901F9018951F920F920FB60F92112454
:1004C0008F93EF93FF9380911D018093C600E1EC21
:1004D000F0E080818F7D8083FF91EF918F910F906D
:1004E0000FBE0F901F901895EE0FFF1F0590F4910F
:0804F000E02D0994F894FFCF00
:1004F80030FF496E677265736520656C20636F6DA8
:08050800616E646F3A200000EF
:00000001FF
